:100000000C94B2030C94F9030C94F9030C94F903C7
:100010000C94F9030C94F9030C94F9030C94F90370
:100020000C94F9030C94F9030C946A230C943D246A
:100030000C947D1A0C94F9030C94F9030C94F903B5
:100040000C94F9030C94F9030C94F9030C94F90340
:100050000C94F9030C94DE1A0C94F9030C94F90334
:100060000C94F9030C94F9030C94F9030C94F90320
:100070000C94F9030C94F9030C94F9030C94F90310
:100080000C94F9030C94F9030C94F9030C94F90300
:100090000C94F9030C94F9030C94F9030C94F903F0
:1000A0000C94F9030C94F9030C94F9031400340034
:1000B0003600370013001C0029000400120008005D
:1000C00018000C001D001D0014000D000D000E0096
:1000D0000000000000002C002A00E00001000100E8
:1000E0000100010001000100010001000100010008
:1000F00001000100010001000100010001000100F8
:1001000000000000000001000100010001000100EA
:1001100001000100010001000100010001000100D7
:1001200001000100010001000100010001000100C7
:1001300000000000000001000100010001000100BA
:1001400001000100010001000100010001000100A7
:100150000100010001000100010001000100010097
:10016000000000000000010001000100010001008A
:100170000100010001000100010001000100010077
:100180000100010001000100010001000100010067
:10019000000000000000010001000100010001005A
:1001A0000100010001000100010001000100010047
:1001B0000100010001000100010001000100010037
:1001C000000000000000010001000100010001002A
:1001D0000100010001000100010001000100010017
:1001E0000100010001000100010001000100010007
:1001F00000000000000001000100010001000100FA
:1002000001000100010001000100010001000100E6
:1002100001000100010001000100010001000100D6
:1002200000000000000001000100010001000100C9
:1002300001000100010001000100010001000100B6
:1002400001000100010001000100010001000100A6
:100250000000000000000100010001000100010099
:100260000100010001000100010001000100010086
:100270000100010001000100010001000100010076
:100280000000000000000100010001000100010069
:100290000100010001000100010001000100010056
:1002A0000100010001000100010001000100010046
:1002B0000000000000000100010001000100010039
:1002C0000100010001000100010001000100010026
:1002D0000100010001000100010001000100010016
:1002E0000000000000000100010001000100010009
:1002F00001000100010001000100010001000100F6
:1003000001000100010001000100010001000100E5
:1003100000000000000001000100010001000100D8
:1003200001000100010001000100010001000100C5
:1003300001000100010001000100010001000100B5
:1003400000000000000001000100010001000100A8
:100350000100010001000100010001000100010095
:100360000100010001000100010001000100010085
:100370000000000000000100010001000100010078
:100380000100010001000100010001000100010065
:100390000100010001000100010001000100010055
:1003A000000000000000010001000100643214643C
:1003B0003214783C1E1E140A0500000000010101E1
:1003C0000202030405050607090A0B0C0E0F1112A1
:1003D000141517191B1D1F212325282A2C2F3134F2
:1003E00036393B3E414346494C4F5255585A5D6160
:1003F00064676A6D707376797C7F8386898C8F924F
:1004000095989B9EA2A5A7AAADB0B3B6B9BCBEC134
:10041000C4C6C9CBCED0D3D5D7DADCDEE0E2E4E681
:10042000E8EAEBEDEEF0F1F3F4F5F6F8F9FAFAFBA1
:10043000FCFDFDFEFEFEFFFFFFFFFFFFFFFEFEFED9
:10044000FDFDFCFBFAFAF9F8F6F5F4F3F1F0EEED48
:10045000EBEAE8E6E4E2E0DEDCDAD7D5D3D0CECBD7
:10046000C9C6C4C1BEBCB9B6B3B0ADAAA7A5A29E49
:100470009B9895928F8C898683807C797673706D3A
:100480006A6764615D5A5855524F4C494643413E34
:100490003B393634312F2C2A282523211F1D1B19C7
:1004A00017151412110F0E0C0B0A09070605050487
:1004B0000302020101010000000000000000010130
:1004C0000101010101010102020202020202020213
:1004D00003030303030303030404040404040505E2
:1004E00005050506060606060707070708080808A3
:1004F0000909090A0A0A0A0B0B0B0C0C0C0D0D0D4D
:100500000E0E0F0F0F1010111111121213131414DD
:10051000151516161717181819191A1A1B1C1C1D51
:100520001D1E1F1F202021222223242525262727A8
:1005300028292A2B2B2C2D2E2F2F303132333435D6
:1005400036363738393A3B3C3D3E3F4041424344E2
:10055000464748494A4B4C4D4F50515253555657B8
:10056000585A5B5C5E5F606263646667696A6C6D63
:100570006E707173747678797B7C7E8081838486DB
:10058000888A8B8D8F91929496989A9B9D9FA1A318
:10059000A5A7A9ABADAFB1B3B5B7B9BBBDBFC1C41A
:1005A000C6C8CACCCFD1D3D6D8DADCDFE1E4E6E8DE
:1005B000EBEDF0F2F5F7FAFCFF12036B0065007942
:1005C0000062006F00610072006400000016037199
:1005D000006D006B006200750069006C00640065CE
:1005E00000720000000403090409026D0004010008
:1005F000A0FA090400000103010100092111010012
:10060000012240000705810308000A0904010001D6
:1006100003010200092111010001224D000705829A
:100620000308000A09040200010300000009211167
:100630000100012236000705830308000A090403AC
:100640000001030000000921110100012239000707
:100650000584032000011201100100000008EDFED6
:10066000606001000102000105010906A101050702
:1006700019E029E715002501950875018102050893
:1006800019012905950575019102950175039101DF
:100690000507190029F71500250195F87501810254
:1006A000C005010980A10185021601002603001A78
:1006B00081002A8300751095018100C0050C090195
:1006C000A1018503160100269C021A01002A9C0242
:1006D000751095018100C005010902A1010901A160
:1006E00000050919012905150025019505750181E8
:1006F0000295017503810105010930093115812534
:100700007F95027508810609381581257F95017549
:10071000088106050C0A38021581257F95017508A8
:100720008106C0C005010906A101050719E029E7F6
:100730001500250195087501810295017508810153
:1007400005081901290595057501910295017503A3
:1007500091010507190029FF150026FF0095067570
:10076000088100C011241FBECFEFDAE0DEBFCDBF8D
:1007700004B603FE27C08091310290913202A0910D
:100780003302B09134028730904BA740B04BD1F484
:1007900010923102109232021092330210923402FF
:1007A00014BE84B7877F84BF0FB6F894A895809154
:1007B0006000886180936000109260000FBEE0E0EE
:1007C000F8E3099511E0A0E0B1E0EAE8FFE402C037
:1007D00005900D92A233B107D9F722E0A2E3B1E070
:1007E00001C01D92A133B207E1F70E94BE200C9414
:1007F0008E270C94000090E080E0089508950895FD
:1008000081E00895089581E008950C9400040E9409
:10081000C6122FEF84E39CE0215080409040E1F726
:1008200000C000000C94011BEF92FF920F931F93E6
:10083000CF93DF937C01DC010D911C911197809186
:100840007101811143C012968C918823D1F1C801A6
:100850000E944D18C82F682FC8010E94F417B801D4
:100860008C2F0E947F05EC01B7010E9405048823AC
:1008700009F468C0B701CE010E948807882309F4F3
:1008800061C0CE33B0E7DB0770F4C433E0E7DE07C6
:1008900010F5C130F0E7DF0709F45CC050F5C11571
:1008A000D04709F44AC081E0809334018093350138
:1008B000C701DF91CF911F910F91FF90EF900C94A2
:1008C0000304C8010E942318C82FC9CFC8010E9481
:1008D0004D18B801C6CFFE01E553F047D701129677
:1008E0008C91E930F10508F040C0E057F84D0C94C8
:1008F0004027CE01825090474397A8F6F7018281A6
:100900008823B1F20E940F1A811102C00E94EE19D1
:100910000E942C1A90E09093230280932202FE0101
:10092000E350F047809122028160E231F10508F046
:1009300047C0E756F84D0C944027F701828181119A
:100940000E94070480E0DF91CF911F910F91FF90EB
:10095000EF900895D70112968C91882399F3809196
:10096000E60181608093E601EDCF882359F30E9470
:10097000C30BE8CF882331F30E94B90BE3CF882360
:1009800009F30E94960ADECF8823E1F20E94AE0AA4
:10099000D9CF8823B9F20E94CD0AD4CF882391F20F
:1009A0000E94E50ACFCF882369F20E94FD0ACACFD0
:1009B000882341F20E94150BC5CF809122028260EC
:1009C00080932202809122020E94301A0E94C61255
:1009D000B9CF809122028460F3CF80912202886097
:1009E000EFCF809122028061EBCF80912202806262
:1009F000E7CF809122028064E3CF80912202806859
:100A0000DFCF809122028C60DBCF809122028E7F2B
:100A1000D7CF809122028D7FD3CF809122028B7F0E
:100A2000CFCF80912202877FCBCF809122028F7E11
:100A3000C7CF809122028F7DC3CF809122028F7B0E
:100A4000BFCF809122028F77BBCF80912202837F1C
:100A5000B7CF90912202892F97FB87F98058B0CFAA
:100A6000882361F0109234010E94AD1A90933301F3
:100A70008093320182E00E942B1064CF8091340178
:100A800081110FC080913201909133010E94B91AF7
:100A9000883C910530F486E20E94000F86E20E94B5
:100AA000DC0F82E00E9432104DCF882351F010926B
:100AB00035010E94AD1A909333018093320180E298
:100AC000DACF8091350181110FC080913201909170
:100AD00033010E94B91A883C910530F487E20E94E4
:100AE000000F87E20E94DC0F80E2DCCF0C94D70776
:100AF0000C94D9070C9402040C947A050895972F4E
:100B000070E026E0929F600D711D1124FB0198E1B9
:100B1000899FE00DF11D1124EE0FFF1FE455FF4FDB
:100B2000859194910895FC01EE0FFF1FE455FC4F51
:100B30008591949108950E947F050E940C079C0165
:100B4000811540E4940708F097C0211580E3380729
:100B500008F0FAC0203E310508F074C0203C310591
:100B600008F0E5C0283A310588F4253A310508F047
:100B7000E2C02130310509F477C0C9010497813AF8
:100B8000910508F471C030E020E06EC0C901885AB8
:100B900091094597C0F7283A310509F4FEC0293A72
:100BA000310509F4FDC02A3A310509F4FCC02B3A9D
:100BB000310509F4FBC02C3A310509F4FAC02B3B8E
:100BC000310509F4F9C02C3B310509F4F8C02D3A80
:100BD000310509F4F7C0203B310509F4F6C02E3A7F
:100BE000310509F4F5C02F3A310509F4F4C0213B71
:100BF000310509F4F3C0223B310509F4F2C0233B6F
:100C0000310509F4F1C0243B310509F4F0C0253B5E
:100C1000310509F4EFC0263B310509F4EEC0273B4E
:100C2000310509F4EDC0283B310509F4ECC0293B3E
:100C3000310509F4EBC02A3B310509F4EAC020E094
:100C400034E412C0211590E2390780F42F3F3105BA
:100C500009F050F4283E310538F0C901805F910950
:100C60003065409708F08FCFC9010895C9019F7082
:100C70000E9493059C01F8CF8115944508F041C06E
:100C8000211583E5380708F06AC0211592E5390778
:100C900038F5211541E5340708F05CC0211580E5E1
:100CA000380708F454C0C90134E0969587953A9501
:100CB000E1F78370422F46954695437090E2499F35
:100CC000A0011124582B822F837021E030E002C054
:100CD000220F331F8A95E2F7242B352B3C68C4CFB3
:100CE000C9018370992741E050E002C0440F551FAD
:100CF0008A95E2F72695269580E2289F9001112497
:100D0000EBCF211596E5390748F4922F8827211556
:100D10003545C8F59C01246F306AA6CFC9019056AD
:100D20003F708115904108F02ECF30629DCFC901F0
:100D3000805C91099DCF253A310549F1263A31056C
:100D400049F522E830E490CF3327306C8DCF3F70E7
:100D5000306A8ACF322F2227216F306A85CFC901AE
:100D60008370992741E050E002C0440F551F8A95D7
:100D7000E2F72695269580E2289F90011124242BE6
:100D8000352B3A6871CF88279F719C01CECF21E81F
:100D900030E46ACF23E830E467CF22EE34E464CF56
:100DA00029EE34E461CF2AEE34E45ECF25EB34E45F
:100DB0005BCF26EB34E458CF23EB34E455CF24EB60
:100DC00034E452CF27EB34E44FCF2CEC34E44CCF57
:100DD0002DEC34E449CF23E835E446CF2AE835E466
:100DE00043CF22E935E440CF24E935E43DCF21E289
:100DF00036E43ACF23E236E437CF24E236E434CF88
:100E000025E236E431CF26E236E42ECF27E236E47F
:100E10002BCF2AE236E428CF803E910581F1C8F439
:100E20008133910509F462C048F48932910509F4CF
:100E300056C08A32910509F460C00895893391053E
:100E4000B9F082389105A1F08533910509F440C0CD
:100E50000895863E910561F138F4823E9105B1F026
:100E6000833E9105E1F00895873E910551F1089583
:100E7000209122022370D9F080EE90E00895209115
:100E8000220220FF14C089E390E0089520912202FD
:100E900022FF0DC024FD09C083EE90E0089520914B
:100EA000220222FD31C024FF02C090E080E00895BC
:100EB0002091220223FFFBCF24FDF7CF87EE90E0A5
:100EC00008952091220223FFEECF86EE90E0089550
:100ED0002091220225FFEBCF89E290E00895209136
:100EE000220225FFE4CF85E390E0089520912202BD
:100EF00026FFDDCF8AE290E008952091220226FFAE
:100F0000D6CF81E390E0089582EE90E008950895B1
:100F10000F931F93CF938C01FB018281811106C037
:100F2000C1E08C2FCF911F910F910895C091430183
:100F3000C11125C00531104799F70E94870781E04C
:100F4000809343010E94AD1A909342018093410126
:100F500010923601109238011092370110923A0126
:100F60001092390110923C0110923B0110923E0107
:100F700010923D011092400110923F01D2CF80911A
:100F80004101909142010E94B91A883C910540F6B6
:100F900080913601E82FF0E0EE0FFF1FE95CFE4F75
:100FA000118300838F5F80933601C0E0BACF0C9429
:100FB000FE030C94FF03CF93DF9385B7806885BF52
:100FC00085B7806885BFAAE1B1E04EE151E0C1E09C
:100FD000D0E08D91E82FE295EF70F0E061A18F7085
:100FE0009E0101C0220F8A95EAF7922F90959623D1
:100FF00091A382A1822B82A34A175B0751F7A4E138
:10100000B1E04AE151E0C1E0D0E08D91E82FE295F6
:10101000EF70F0E061A18F709E0101C0220F8A95F0
:10102000EAF7922F9095962391A382A1822B82A317
:101030004A175B0751F71092480110924401109231
:1010400049011092450110924A01109246011092F6
:101050004B0110924701DF91CF910C9476056F926E
:101060007F928F929F92AF92BF92CF92DF92EF9238
:10107000FF920F931F93CF93DF9334E4632E31E0FD
:10108000732E4AE1E42E41E0F42E01E010E0DD246D
:10109000D394E301C9903E01DE011E92F7018191D4
:1010A0007F01E82FE295EF70F0E091A18F70A80129
:1010B00001C0440F8A95EAF7892F842B81A382A16E
:1010C000842E8094882182A380EA8A95F1F764E1D6
:1010D00071E090E080E0EB013991BE01A32EA29473
:1010E0002FE0A222B12CE50128A19C903F7058016D
:1010F00001C0AA0C3A95EAF7A22220E031F4202F91
:10110000082E01C0220F0A94EAF729292C93019690
:101110008630910501F781A1882181A382A1482B06
:1011200042A38C91C81641F0D0924C010E94AD1A96
:1011300090934E0180934D01D8E46D16D1E07D0669
:1011400009F0A7CF80914C018823D1F080914D0107
:1011500090914E010E94B91A069790F08091440137
:101160008093480180914501809349018091460117
:1011700080934A018091470180934B0110924C016A
:101180000E94780581E0DF91CF911F910F91FF9030
:10119000EF90DF90CF90BF90AF909F908F907F9017
:1011A0006F900895E82FF0E0E85BFE4F808108958E
:1011B00008959C01CB016BB1542F509556236BB110
:1011C000462B6FB7F894820F931F2817390711F435
:1011D0006FBF0895F90171919F01E8E04BB90000DC
:1011E00000C077FF5BB9770F000000C000C000C0EF
:1011F0005BB900C0EA9591F7E8CFFC019AB1942B56
:101200009AB99B01220F331F620F731FCF010E94F7
:10121000D90887EC90E00197F1F700C0000008952D
:1012200040E20C94FD08AF92BF92CF92DF92EF9212
:10123000FF920F931F93CF93DF937C01E901842FDB
:10124000242F662309F43FC0C42ED12C8FEF90E0E9
:10125000861B9109489F8001499F100D1124212F61
:10126000812F9927C81AD90A9CE3A92EB12CC7014E
:10127000B5010E941827FB01BC01C69EC001C79E94
:10128000900DD69E900D1124B5010E941827E330D1
:10129000F10509F443C080EFE816F10468F4E13089
:1012A000F10591F13297A1F18CE3E816F10440F1D8
:1012B00080E020E040E007C0E430F10599F1842FA0
:1012C000861B3597A9F7E42FF0E0E754FB4F4491D4
:1012D000E22FF0E0E754FB4F9491E82FF0E0E75461
:1012E000FB4FE49149839883EA83DF91CF911F916B
:1012F0000F91FF90EF90DF90CF90BF90AF90089547
:10130000812F262F210FDFCF812F242F461BDBCFEC
:10131000862F810FE42F412F2E2FD5CFE42FE61BF0
:10132000842FF9CF842F462F410FCDCF88E090E056
:101330000C944E27AB01BC0188E090E00C946C2724
:10134000CF93DF9300D000D0CDB7DEB7E3E1F2E07A
:1013500083E0808311828FEF8283838380911302E5
:1013600090911402A0911502B091160289839A837C
:10137000AB83BC83BC01CD010F900F900F900F90F9
:10138000DF91CF910C949A098091130280FF06C0DF
:1013900061E070E08BE192E00C94100910921C0265
:1013A00010921B0210921D02F3CFEBE1F2E0818359
:1013B000608342830C94C409EF92FF920F931F93B2
:1013C000CF93DF9300D00F92CDB7DEB7182FE92E61
:1013D000F62E042F8091130290911402A091150211
:1013E000B09116028093170290931802A0931902ED
:1013F000B0931A028091130280FF1FC09E012F5FDD
:101400003F4F812F9E2D0E9413098091170210FBE0
:1014100087F9809317021695809118028078182B0F
:10142000E0FA17F910931802F092190200931A02C9
:101430004B8169818A810E94D5090F900F900F908E
:10144000DF91CF911F910F91FF90EF9008950F932F
:101450001F93CF93DF9300D000D00F92CDB7DEB7AC
:1014600089839D83062F142F8091130280FF54C01F
:10147000982F9E77923091F589819D810E94DC0999
:1014800080911302B981B0FB87F980931302B6955E
:10149000809114028078B82B8D8180FBB7F9B093CE
:1014A000140200931502109316028091130290917A
:1014B0001402A0911502B091160289839A83AB831E
:1014C000BC83BC01CD010F900F900F900F900F9037
:1014D000DF91CF911F910F910C949A09982F9695B7
:1014E0009F732EE3290F2F73243018F410911602E6
:1014F000C7CF965C9F73993018F6881F8827881F7E
:10150000909114029D83990F982B9983AD81A7FB2D
:10151000AA27A0F9AD83B4CF0F900F900F900F9032
:101520000F90DF91CF911F910F910895E3E1F2E0C9
:101530002081221F2227221F30911402432F440FA3
:10154000842F822B37FB992790F9089668E671E083
:101550000E942C27438162810C94270A2091130258
:10156000221F2227221F30911402432F440F842F61
:10157000822B37FB992790F98830910540F4805AE7
:101580009E4F40911602609115020C94270A08970D
:1015900068E671E00E942C27F4CF60911502683F45
:1015A00090F4685F80911302881F8827881F9091AC
:1015B0001402292F220F97FB992790F940911602C8
:1015C000822B0C94270A6FEFEDCF609115026830E3
:1015D00090F0685080911302881F8827881F90918F
:1015E0001402292F220F97FB992790F94091160298
:1015F000822B0C94270A60E0EDCF40911602483F01
:1016000090F4485F80911302881F8827881F90916B
:101610001402292F220F97FB992790F96091150248
:10162000822B0C94270A4FEFEDCF409116024830E1
:1016300090F0485080911302881F8827881F90914E
:101640001402292F220F97FB992790F96091150218
:10165000822B0C94270A40E0EDCFCF93DF9300D08C
:1016600000D0CDB7DEB79091130290FF47C09178BC
:10167000811132C092609093130280911302909175
:101680001402A0911502B091160289839A83AB834C
:10169000BC83BC01CD010E949A0980911302982F4E
:1016A0009E77923009F510926401881F8827881F61
:1016B00090911402292F220F97FB992790F94091BE
:1016C000160260911502822B0F900F900F900F90D1
:1016D000DF91CF910C94270A893110F09063CBCF22
:1016E0008F73880F982BC7CF982F9695925C9F7316
:1016F0009631D8F691E090936401D7CF0F900F9078
:101700000F900F90DF91CF9108958091E601816055
:101710008093E60181E0809365010E940F1A811198
:1017200004C00E94EE190E94A0090E9496096093CD
:1017300013027093140280931502909316026E7731
:1017400061F40E94A0090E949609609313027093AD
:101750001402809315029093160281E08093640135
:101760008091130280FF04C086958F730C942D0B1B
:1017700008958091130286958F738F5F893108F0E9
:1017800081E00C942D0BCF93DF9300D000D0CDB728
:10179000DEB790911302892F8E7F90FF8160809336
:1017A00013028091130290911402A0911502B0913E
:1017B000160289839A83AB83BC83BC01CD010E944E
:1017C0009A098091130280FF0AC086958F730F904B
:1017D0000F900F900F90DF91CF910C942D0B1092E2
:1017E00064019FEFA0E7B2E09150A040B040E1F764
:1017F00000C000000F900F900F900F90DF91CF91DD
:101800000C94C409CF93C82F809162019091630119
:101810000E94B91AEC2FF0E0EB54FC4FE491E8176A
:10182000190609F010F50E94AD1A90936301809398
:101830006201E0916101F0E0E754FC4F4491809136
:101840001302881F8827881F90911402292F220FC6
:1018500097FB992790F960911502822B0E94DC0971
:10186000809161018F5F80936101CF910895CF9343
:10187000C82F80915F01909160010E94B91AEC2FEE
:10188000F0E0EE54FC4FE491E817190609F0E8F493
:101890000E94AD1A9093600180935F0140911602FF
:1018A0006091150280915D0190915E010E94DC09BA
:1018B00080915D0190915E01019668E671E00E9461
:1018C000182790935E0180935D01CF9108950F9347
:1018D0001F93CF93C82F80915B0190915C010E9470
:1018E000B91AEC2FE695F0E0EE54FC4FE491E817BE
:1018F000190609F038F50E94AD1A90935C018093A7
:101900005B018091590190915A0108E611E0B801FC
:101910000E9418272BE132E04091160260911502D7
:101920000E9413090E94C4098091590190915A01A3
:10193000C0FF0CC00196B8010E94182790935A016D
:1019400080935901CF911F910F9108950197F6CF80
:10195000EF92FF920F931F93CF93DF93C82F1FEF48
:1019600080FF11E080915701909158010E94B91AAF
:10197000C695EC2FF0E0E155FC4FE491E81719060D
:1019800011F008F045C00E94AD1A90935801809361
:10199000570110921C0210921B0210921D02C7E008
:1019A000D0E000E087E0E82EF12C80915601800F16
:1019B00087FD8F5F81111EC0209116022C9FC001F0
:1019C0002D9F900D1124B7010E942C27462F809146
:1019D0001302881F8827881F90911402592F550FD2
:1019E00097FB992790F92BE132E060911502852B46
:1019F0000E941309010F2197C1F60E94C4091130FA
:101A000071F480915601882319F08150809356011A
:101A1000DF91CF911F910F91FF90EF900895109259
:101A20005601F6CF1F93CF93DF9300D00F92CDB71F
:101A3000DEB7182F80915401909155010E94B91A78
:101A4000E12FF0E0E455FC4FE491E817190609F0A6
:101A5000D8F50E94AD1A90935501809354011A82D3
:101A600019821B8217E080911302881F8827881F24
:101A700090911402592F550F97FB992790F99E01C9
:101A80002F5F3F4F4091160260911502852B0E94F7
:101A90001309115041F78A8180931C028981809338
:101AA0001B028B8180931D020E94C409909100014A
:101AB00080915301913099F48A3F6CF489EF8093BF
:101AC00053018FEF809300010F900F900F90DF91E3
:101AD000CF911F910895815080935301F5CF8830A5
:101AE0002CF087E08093530181E0ECCF8F5FF4CF3F
:101AF00080915101909152010E94B91A883E934001
:101B000010F10E94AD1A909352018093510180917F
:101B10004F01909150010196817099279093500147
:101B200080934F012BE132E0409116026091150243
:101B300050E5FC015E9FC0015F9F900D11240E9443
:101B400013090C94C409089580916401882371F1EC
:101B50008091130286958F739EE3980F9F73943044
:101B600018F482500C94020C9AE3980F9F739330F0
:101B700018F486500C94370C97E3980F9F739630A7
:101B800018F489500C94670C91E3980F9F7396306A
:101B900018F48F500C94A80C9BE2980F9F7393300D
:101BA00018F485510C94120D0C94780D08959093AF
:101BB0006B0180936A010895E0916A01F0916B01D5
:101BC000309721F00190F081E02D099480E0089594
:101BD000E0916A01F0916B01309721F00280F3816E
:101BE000E02D09940895E0916A01F0916B0130971E
:101BF00021F00480F581E02D099408952091680179
:101C0000309169012817390771F090936901809329
:101C10006801E0916A01F0916B01309721F0068034
:101C2000F781E02D099408952091660130916701B4
:101C30002817390771F09093670180936601E0914E
:101C40006A01F0916B01309721F00084F185E02D5D
:101C50000994089508950C942A0E0E94A41A0E94D3
:101C6000DB070E94661B0C94850BBF92CF92DF921C
:101C7000EF92FF920F931F93CF93DF9300D000D08A
:101C80000F92CDB7DEB70E942F088DE6C82E81E0F7
:101C9000D82E10E000E0E02E802F0E94D208B82E4F
:101CA000F601F1906F01F81609F45BC08091E6012E
:101CB00081FD0E94D80830E020E0FB244F2D50E049
:101CC000922FBA01022E02C0759567950A94E2F729
:101CD00060FF41C02983EA8221E030E0790102C03F
:101CE000EE0CFF1C9A95E2F72B2D30E02E213F21C0
:101CF00081E0232B09F480E08B830E94AD1A816080
:101D0000782F9D838C8349815A816B818D810E94BC
:101D1000D70EF801E359FE4F80818E2580830E9403
:101D2000131E0E94DC0D90916C01891789F10E94AD
:101D3000DC0D80936C010F900F900F900F900F901F
:101D4000DF91CF911F910F91FF90EF90DF90CF9097
:101D5000BF900C947C052F5F3F4F2630310509F072
:101D6000AFCF0F5F1F4F0430110509F094CF8FEFF5
:101D700089838A831B820E94AD1A8160782F9D839C
:101D80008C8349815A816B818D810E94D70EC7CF88
:101D90000F900F900F900F900F90DF91CF911F91A8
:101DA0000F91FF90EF90DF90CF90BF900895CF9369
:101DB000DF93CDB7DEB72B970FB6F894DEBF0FBE1B
:101DC000CDBF4F83588769877A878B871E8285E0CE
:101DD000FE013796DE01119601900D928A95E1F78A
:101DE00049815A816B817C818D819E812B960FB6B2
:101DF000F894DEBF0FBECDBFDF91CF910C944E158E
:101E0000882309F4D8C0823871F40E94DC0D81FD6A
:101E1000D2C089E30E94F5180E94BF1989E30E948D
:101E200032190C94BF19833859F40E94DC0D80FDDF
:101E3000C2C083E50E94F5180E94BF1983E5EFCF69
:101E4000843859F40E94DC0D82FDB5C087E40E94FD
:101E5000F5180E94BF1987E4E2CF9CEF980F913AE2
:101E600018F40E94F518DDCF90E2980F983050F4E6
:101E7000877091E001C0990F8A95EAF7892F0E9437
:101E80007619CFCF9BE5980F933070F4853A31F0F7
:101E9000863A39F083E890E00C94FE0D81E890E0FA
:101EA000FBCF82E890E0F8CF98E5980F953108F0E5
:101EB00082C0883A09F440C0893A09F440C08A3A9D
:101EC00009F440C08B3A09F440C08C3A09F440C090
:101ED0008B3B09F440C08C3B09F440C08D3A09F4B7
:101EE00040C0803B09F440C08E3A09F440C08F3AAC
:101EF00009F440C0813B09F440C0823B09F440C072
:101F0000833B09F440C0843B09F440C0853B09F49D
:101F100040C0863B09F440C0873B09F440C0883B81
:101F200009F440C0893B09F440C08A3B09F440C031
:101F300090E080E00C94140E82EE90E0FBCF89EEEE
:101F400090E0F8CF8AEE90E0F5CF85EB90E0F2CF0D
:101F500086EB90E0EFCF83EB90E0ECCF84EB90E06A
:101F6000E9CF87EB90E0E6CF8CEC90E0E3CF8DEC0F
:101F700090E0E0CF83E891E0DDCF8AE891E0DACF2E
:101F800082E991E0D7CF84E991E0D4CF81E292E079
:101F9000D1CF83E292E0CECF84E292E0CBCF85E254
:101FA00092E0C8CF86E292E0C5CF87E292E0C2CF4E
:101FB0008AE292E0BFCF0895882309F44BC08238AB
:101FC00071F40E94DC0D81FF45C089E30E94F51881
:101FD0000E94BF1989E30E9432190C94BF198338FB
:101FE00059F40E94DC0D80FF35C083E50E94F5188E
:101FF0000E94BF1983E5EFCF843859F40E94DC0DAD
:1020000082FF28C087E40E94F5180E94BF1987E468
:10201000E2CF9CEF980F913AF0F290E2980F98304F
:1020200050F4877091E001C0990F8A95EAF7892FE3
:102030000E947C19D2CF9BE5980F933020F490E05A
:1020400080E00C94FE0D885A853120F490E080E009
:102050000C94140E0895882321F00E9476190C9494
:10206000BF190895882321F00E947C190C94BF1990
:1020700008958F929F92AF92BF92DF92EF92FF925C
:102080000F931F93CF93DF9300D000D00F92CDB763
:10209000DEB77C016D837983FC01058102950F70A9
:1020A000128111110E9495190E94EE18D82E8823D2
:1020B00071F01123A1F08D81805E883080F082E084
:1020C0000E94D8180E94EE1891E0D82ED926E981F6
:1020D000E295EF70F0E0E555F84D0C944027D12CD7
:1020E000F6CF09810F70F981F07F11F00295007F22
:1020F0001123B1F0002361F08D81805E883018F0EB
:102100002D81211109C0802F0E9476190E94BF19CC
:102110008D810E94000F15C0802F0E948719F6CF75
:102120008D810E94DC0F002361F08D81805E8830FC
:1021300018F03D81311129C0802F0E947C190E9426
:10214000BF19DD2009F4D3C10E94CB1880FDCFC197
:10215000F70112820E94C5180E940C17C7010E9445
:1021600088120E94C5180F900F900F900F900F903B
:10217000DF91CF911F910F91FF90EF90DF90BF9073
:10218000AF909F908F900C942E17802F0E948D19E6
:10219000D6CF49814F70B42E5981507F503219F0FB
:1021A000B29480EFB8228D81882369F0813029F1C3
:1021B000112369F1002359F0F701858180FFA8CF31
:1021C0008F70858304C0112361F0011104C08B2D31
:1021D0000E942B10B6CF8B2D0130D1F70E94A91988
:1021E000B0CF011106C00E94AC198B2D0E94321095
:1021F000A8CF013009F4A5CFF6CF112321F0063086
:1022000008F09FCFE4CF053008F09BCFEECF00233E
:1022100061F38D810E94DC0F94CF8981869586952C
:10222000837069F0813009F08CCF8D819981937032
:10223000111102C090E080E00E94140E82CF8D81C7
:1022400099819370111102C090E080E00E94FE0D10
:1022500078CF8D81112329F00E94211D0E94081E34
:1022600070CF0E94891DFACF8981837009F05FC009
:10227000111167CF2D81229526952770220F220FED
:102280008D818F7090E0B0E0A0E04C015D01022EE6
:1022900004C0880C991CAA1CBB1C0A94D2F7FD81AF
:1022A00060E070E0CB01F4FF0FC06FE070E080E011
:1022B00090E004C0660F771F881F991F2A95D2F7F8
:1022C0006095709580959095298126952695237027
:1022D0002D832230B1F0233019F19B01AC01282964
:1022E00039294A295B2929833A834B835C833D81C1
:1022F00069817A818B819C813130B1F00E9499167D
:1023000020CF9B01AC01282939294A295B2929833F
:102310003A834B835C83CA01B9010E94C31611CF73
:102320000E949916C501B4010E946F160ACF8695C6
:10233000112311F089818170882309F402CF2D8146
:10234000229526952770220F220F8D818F7090E0A5
:10235000B0E0A0E04C015D01022E04C0880C991C85
:10236000AA1CBB1C0A94D2F73D8160E070E0CB014F
:1023700034FF0FC06FE070E080E090E004C0660FB3
:10238000771F881F991F2A95D2F7609570958095C1
:10239000909549814695469543704D834230B1F002
:1023A000433019F19B01AC01282939294A295B29BD
:1023B00029833A834B835C833D8169817A818B8158
:1023C0009C813130B1F00E949F17BBCE9B01AC01C4
:1023D000282939294A295B2929833A834B835C833D
:1023E000CA01B9010E94C917ACCE0E949F17C5014E
:1023F000B4010E947517A5CE3D81323F09F447C054
:1024000080F4303F79F1313FD9F1832F805E803104
:10241000D0F0112309F456C001117ACE89818F7151
:1024200033C04D81433FD1F1443F99F7112309F463
:102430003FC089818F7189830E940C1763E0898175
:102440000E94CF187ECE5D815F705D8389818F7120
:10245000112321F00E940C178D81BACE0E942E17F5
:102460008D81C4CE112341F0053008F06ACE8981F8
:102470008F710E94531765CE063008F062CEF7CFF9
:1024800089818F71112339F00E940C175ACE8981EE
:102490008F711123C9F30E942E1753CE112329F0F7
:1024A00089818F710E94F7164CCE0E94ED1649CE9D
:1024B00081E00E94D818023008F443CE82E00E94E6
:1024C000D8183FCE0111A5CE89818F71E4CF498103
:1024D0004F706D81C7010E94FB030E94E81531CE49
:1024E00049814F706D81C7010E947E052ACE0F90F1
:1024F0000F900F900F900F90DF91CF911F910F9140
:10250000FF90EF90DF90BF90AF909F908F900895D5
:102510000F931F93CF93DF93EC018B819C81892BC9
:1025200029F08881998189238F3F29F4DF91CF9108
:102530001F910F910895CE010E9414048823B1F3D6
:10254000688179818A810E949B188C010E94F3170F
:102550000E946416B801CE01DF91CF911F910F91B7
:102560000C9439100E9495190E94A6190E946819AE
:102570000E94BF190E94F91E0E94081E90E080E090
:102580000E94FE0D90E080E00C94140E0E948419CD
:102590000C94B2120E948F18282F892F82958F7069
:1025A000903C80F48A30B0F4843020F4823090F48F
:1025B00080E008958630E1F781E0203E88F0213FF9
:1025C000B9F70EC08C3011F08F3091F793FB88274C
:1025D00080F9089581E0203F39F018F4203E40F75B
:1025E0000895243F29F7FCCF0895CF93DF9300D0BF
:1025F00000D00F92CDB7DEB70F900F900F900F90D5
:102600000F90DF91CF910895CF93DF9300D000D04A
:1026100000D0CDB7DEB726960FB6F894DEBF0FBE5A
:10262000CDBFDF91CF9108951F93CF93DF93E091BA
:10263000720116E0809173018E1304C0DF91CF9177
:102640001F910895CE2FD0E01E9FF0011124EC5869
:10265000FE4F4081518162817381848195810E9406
:102660000413FE013196E770E5CF4091A40150912B
:10267000A5016091A6017091A7018091A801909198
:10268000A9010C9404131F93CF93DF938091A901A8
:10269000807FC1F48091A6018823A1F0809172010E
:1026A000C09173016091A4017091A5014091A701AF
:1026B0005091A801D62FD723DA01A095B09516E046
:1026C000C81304C0DF91CF911F91089590E0411588
:1026D000510511F0DF3F31F401968770F1CF2A0FD9
:1026E0003B1F17C0189FF001199FF00D1124EC58E3
:1026F000FE4F21812713F0CF20812613EDCF2281B9
:102700002111EACF238134812417350740F3241B9C
:10271000350B283C310500F72091A9012F7020616D
:102720002093A90126E0289FF001299FF00D112494
:10273000E758FE4F80818F708061808384EA91E04A
:102740000E948812DF91CF911F910C9414139F92D5
:10275000AF92BF92CF92DF92EF92FF920F931F93AF
:10276000CF93DF93CDB7DEB72B970FB6F894DEBFCC
:102770000FBECDBF8C0185E0F801DE0117960190F8
:102780000D928A95E1F7D8014C9111965C911197C1
:102790001296EC9012978091A7019091A801009752
:1027A00009F46BC12091A4013091A501632F62232C
:1027B0006F3F09F462C11396CD90DC909090A60112
:1027C000992009F4F8C0C816D90608F43FC0F601EC
:1027D000E81BF90BCF01FF24F394883C910508F026
:1027E000F12C84EAA82E81E0B82E8091A901982FBF
:1027F000907FFF2009F4B7C0911180C0FE2C3513E3
:102800002AC0241328C0E11026C08F7080618093F5
:10281000A9010E943513C5010E9488128091A90167
:10282000D80115968C938F2D2B960FB6F894DEBF9A
:102830000FBECDBFDF91CF911F910F91FF90EF9011
:10284000DF90CF90BF90AF909F9008958095909526
:102850008C0D9D1DC0CFCD2829F0842F85238F3F5F
:1028600009F019C180E0B82FB170DB2EE091720140
:102870002091730136E080FD1CC0EE20A1F2809112
:10288000A90181608093A901F12CCDCF8E2F90E01A
:102890003E9FF0011124EC58FE4F6181651306C084
:1028A0006081641303C062816E11E7CFFC01319631
:1028B000E770E213EBCF4F8358878F8198850E9492
:1028C0008F18292F22952F70903260F0225F2F7081
:1028D000223078F49F7051F0F8019581907F31F4A7
:1028E000D12C0AC09F7011F08823D1F3805E88300C
:1028F000B8F3C8010E948812FD2C95CF351306C08D
:10290000241304C0D801EE2009F47BC04F835887FC
:102910008F8198850E94CA12882309F4B8C0EE20DE
:1029200009F4B5C08091A901803270F02091A40112
:102930003091A5013A8329831B82DD82CC828E836C
:10294000CE0101960E94881286E0F801A4EAB1E067
:1029500001900D928A95E1F70E9443130E9435136E
:10296000FF24F39460CF911113C07C2DDB86CA86BF
:102970006E2D8B850E94F51284EA91E00E948812E8
:1029800086E0F50111928A95E9F70E9435134BCF45
:102990003513BCCF2413BACFE110B8CFD8011596A8
:1029A0008C93C8010E94881286E0F50111928A95E5
:1029B000E9F7F92C38CFC816D90688F1B601681B9B
:1029C000790BCB01F12C883C910508F047C0FE2C17
:1029D000EE2009F45CC0351330C024132EC0809162
:1029E000A90180FD21C0982F907FF1F0D8011596A4
:1029F0008C931597903F39F0982F907F905F8F7050
:102A0000892B15968C93C8010E94881286E0F801E4
:102A1000A4EAB1E001900D928A95E1F7B6CF8095D6
:102A200090958C0D9D1DCECF86E0F801A4EAB1E013
:102A300001900D928A95E1F7F6CE4F8358878F81EA
:102A400098850E94CA1281117FCF8091A90181606F
:102A50008093A901C8010E948812E5CE7C2DDB86F7
:102A6000CA866E2D8B850E94F51286E0E4EAF1E0BD
:102A7000DF011D928A95E9F788CFEE2041F04F8360
:102A800058878F8198850E94CA1281115DCFC80135
:102A90000E94881265CF81E08E25E5CE1F93CF93EB
:102AA000DF93CDB7DEB72C970FB6F894DEBF0FBE1D
:102AB000CDBF4F83588769877A878B879C87CE01E4
:102AC00007960E94A713882369F08A859B85892B26
:102AD00039F04F815885842F85238F3F09F071C0CD
:102AE00016E05FC086E0FE013796DE011196019088
:102AF0000D928A95E1F78A859B85892B89F38885D4
:102B00009F8189238F3F61F32091730130E0C901D8
:102B1000019687709927409172014817190671F440
:102B20000E94C612109273011092720186E0E4EACC
:102B3000F1E0DF011D928A95E9F7D2CF96E0929FEE
:102B4000D001939FB00D1124AC58BE4FFE013196B9
:102B500001900D929A95E1F7809373010E941413EE
:102B6000BFCF819FC00111248C589E4F0E94A71394
:102B70008823E9F0E09172011E9FF0011124EC58C6
:102B8000FE4F4081518162817381848195810E94D1
:102B900004138091720190E00196877099278093C9
:102BA000720180917201909173018913DACF2C9692
:102BB0000FB6F894DEBF0FBECDBFDF91CF911F914E
:102BC000089569857A858B859C850E94041388CF3A
:102BD000EF92FF920F931F93CF93DF938C01892B7A
:102BE00089F0F12CEE24E394E8012196F801849118
:102BF000843709F457C0A0F4823009F43EC048F489
:102C00008130D1F0DF91CF911F910F91FF90EF9024
:102C100008959CEF980F9037A8F70E94000F0AC004
:102C2000853709F44CC09CE7980F903758F78F7799
:102C30000E94DC0F8E0116C00E5F1F4FFE018491B3
:102C400090E2980F983060F48770FE2D01C0FF0F5E
:102C50008A95EAF78F2F0E9498190E94BF1902C027
:102C60000E94000F8F2D815008F4BECFEFE9FFE0E6
:102C70003197F1F700C00000F6CF0E5F1F4FFE0145
:102C8000849190E2980F983050F48770FE2D01C027
:102C9000FF0F8A95EAF78F2F0E949E19DECF0E94C0
:102CA000DC0FE0CF0E5F1F4FFE01C491C150D0F288
:102CB0008FE99FE00197F1F700C00000F7CF0E5FAA
:102CC0001F4FFE01F490CECF08956093BD01709325
:102CD000BE018093BF019093C0010C94B212CF93B8
:102CE000DF9300D000D0CDB7DEB769837A838B83C2
:102CF0009C838091BD019091BE01A091BF01B091D4
:102D0000C00129813A814B815C81822B932BA42BBA
:102D1000B52B8093BD019093BE01A093BF01B093EA
:102D2000C0010F900F900F900F90DF91CF910C94F6
:102D3000B212CF93DF9300D000D0CDB7DEB7698356
:102D40007A838B839C838091BD019091BE01A09179
:102D5000BF01B091C00129813A814B815C818223FE
:102D60009323A423B5238093BD019093BE01A09328
:102D7000BF01B093C0010F900F900F900F90DF91A3
:102D8000CF910C94B212CF93DF9300D000D0CDB787
:102D9000DEB769837A838B839C838091BD01909198
:102DA000BE01A091BF01B091C00129813A814B8140
:102DB0005C8182279327A427B5278093BD01909338
:102DC000BE01A093BF01B093C0010F900F900F9070
:102DD0000F90DF91CF910C94B2121092B901109222
:102DE000BA011092BB011092BC010C94B21241E0E6
:102DF00050E060E070E004C0440F551F661F771F6D
:102E00008A95D2F74093B9015093BA016093BB0100
:102E10007093BC010C94B212282F81E090E0A0E0E6
:102E2000B0E004C0880F991FAA1FBB1F2A95D2F7D4
:102E30004091B9015091BA016091BB017091BC0100
:102E4000842B952BA62BB72B8093B9019093BA01B5
:102E5000A093BB01B093BC010C94B21241E050E0CE
:102E600060E070E004C0440F551F661F771F8A950D
:102E7000D2F740955095609570958091B9019091E9
:102E8000BA01A091BB01B091BC0184239523A62374
:102E9000B7238093B9019093BA01A093BB01B0937B
:102EA000BC010C94B212282F81E090E0A0E0B0E0C9
:102EB00004C0880F991FAA1FBB1F2A95D2F7409103
:102EC000B9015091BA016091BB017091BC01842796
:102ED0009527A627B7278093B9019093BA01A093AD
:102EE000BB01B093BC010C94B212CF93DF9300D01E
:102EF00000D0CDB7DEB769837A838B839C838091C2
:102F0000B9019091BA01A091BB01B091BC01298196
:102F10003A814B815C81822B932BA42BB52B809320
:102F2000B9019093BA01A093BB01B093BC010F907B
:102F30000F900F900F90DF91CF910C94B212CF931E
:102F4000DF9300D000D0CDB7DEB769837A838B835F
:102F50009C838091B9019091BA01A091BB01B0917D
:102F6000BC0129813A814B815C8182239323A42374
:102F7000B5238093B9019093BA01A093BB01B0939C
:102F8000BC010F900F900F900F90DF91CF910C9498
:102F9000B212CF93DF9300D000D0CDB7DEB76983F4
:102FA0007A838B839C838091B9019091BA01A0911F
:102FB000BB01B091BC0129813A814B815C818227A0
:102FC0009327A427B5278093B9019093BA01A093C2
:102FD000BB01B093BC010F900F900F900F90DF9149
:102FE000CF910C94B2120895292F220FE22FE90FEE
:102FF000EE0FE80F8E2F877041E001C0440F8A95D5
:10300000EAF7E695E695E69585E0E89FF00111245C
:10301000E655FE4F30E020E070E05191DF0111975E
:10302000CB01022E02C0969587950A94E2F7817033
:1030300081958527842385278C932F5F3F4F2530EB
:10304000310559F70895292F220FE22FE90FEE0FCE
:10305000E80F9E2F9770E695E695E69585E0E89F48
:10306000F0011124E655FE4F50E040E080E0219150
:1030700030E0092E02C0369527950A94E2F72170B8
:103080003327042E01C0220F0A94EAF7822B4F5FE8
:103090005F4F4530510559F70895BF92CF92DF92A7
:1030A000EF92FF920F931F93CF93DF938C01C09009
:1030B000B901D090BA01E090BB01F090BC018091C1
:1030C000BD019091BE01A091BF01B091C001C82A7D
:1030D000D92AEA2AFB2ACFE1D0E0BC2ED701C601CB
:1030E0000C2E04C0B695A795979587950A94D2F7AC
:1030F00080FD0EC0219788F7B12C8B2DDF91CF91E9
:103100001F910F91FF90EF90DF90CF90BF900895A7
:10311000B8018C2F0E949B05019761F3EECFCF93EE
:10312000DF93D82FC92F0E944D186D2F7C2FDF9170
:10313000CF910C949B051F93CF93DF93162FD72F1E
:1031400090917101992339F0862F972FDF91CF91BC
:103150001F910C948F18882391F0862F972F0E942F
:103160004D18C82F682F812F9D2F0E94F417612FB3
:103170007D2F8C2FDF91CF911F910C949B05862F73
:10318000972F0E942318C82FF2CF8091C1018595F7
:103190008595859508958091C1018770089598E07F
:1031A000899F90011124622B6093C1010C940C172C
:1031B0009091C101809589238093C101282F2770A8
:1031C00061F4282F082E000C330B9217130629F0F8
:1031D0008595859585950C942E1708959091C1013C
:1031E000977081E009F480E008959091130199238C
:1031F000E1F09091220297FF18C0E82FE695E6953E
:10320000E695EF3139F12091010130910201E20F91
:10321000F32FF11D877021E030E001C0220F8A9565
:10322000EAF78181822B81830895209101013091F9
:103230000201F90132969FEF40E05191851751F05C
:103240009F3F19F4511101C0942F4F5F4E31A9F7E0
:103250009F3F09F40895290F311D97FD3A95F90113
:103260008283089590911301992301F19091220294
:1032700097FF1CC0E82FE695E695E695EF3139F10A
:103280002091010130910201E20FF32FF11D8770AF
:1032900021E030E0A90102C0440F551F8A95E2F7F2
:1032A000CA0180959181892381830895209101012C
:1032B00030910201F9013296205E3F4F91918913BE
:1032C00003C0DF0111971C92E217F307B9F70895C5
:1032D00081E090E0E0910101F0910201E80FF91F17
:1032E0001082019680329105A9F708959091E50129
:1032F000982B9093E5010895982F90958091E50182
:1033000089238093E50108951092E5010895909135
:10331000E401982B9093E4010895982F9095809163
:10332000E40189238093E40108951092E401089553
:103330009091E301982B9093E3010895982F909535
:103340008091E30189238093E30108951092E301C2
:1033500008958093C20108951092C20108952091AA
:10336000010130910201F9013196205E3F4F80E06A
:10337000919191118F5FE217F307D1F70895E091D2
:103380000101F09102018091E5018083E09101014A
:10339000F091020180819091E401892B8083E0917A
:1033A0000101F091020180819091E301892B8083DA
:1033B0009091C201992361F0E0910101F091020125
:1033C0008081892B80830E94AF1981111092C201E4
:1033D00080910101909102010C94E80D6DEE7EEF59
:1033E00090E080E00E94782760E082E090E00E9418
:1033F0005A2760E083E090E00E945A2760E084E072
:1034000090E00E945A2760E085E090E00E945A27F1
:1034100040E050E0BA0188E090E00C946C2790E026
:1034200080E00E9454279C0181E02D3E3E4F09F030
:1034300080E0089582E090E00C944627682F82E0B7
:1034400090E00C945A2783E090E00C944627682F74
:1034500083E090E00C945A2784E090E00C94462797
:10346000682F84E090E00C945A27809128028430E1
:1034700039F11092E70188E190E020E40FB6F8946A
:10348000A895809360000FBE2093600080E00E94AA
:103490007C0583B7817F846083BF83B7816083BFEE
:1034A0007894889583B78E7F83BF0FB6F894A895DC
:1034B00080916000886180936000109260000FBE70
:1034C000089508950895CF930E94611A0E942F08CD
:1034D0000E94621AC0E08C2F0E94D208811105C0A0
:1034E000CF5FC430C1F7CF91089581E0FCCF0E9437
:1034F000C6120E94DC0D0C947C051F921FB61F9211
:1035000011248F939F93AF93BF938091E701811113
:1035100013C080911E0290911F02A0912002B091D1
:1035200021024196A11DB11D80931E0290931F029E
:10353000A0932002B0932102BF91AF919F918F91F0
:103540001F901FBE1F90189582E084BD93E095BD2B
:103550009AEF97BD80936E0008952FB7F8948091ED
:103560001E0290911F02A0912002B09121022FBF54
:103570000895CF92DF92EF92FF929C014FB7F8949B
:1035800080911E0290911F02A0912002B091210211
:103590004FBF6C017D01EE24FF24A90170E060E0C3
:1035A000C416D506E606F70638F0821B930BFF908B
:1035B000EF90DF90CF9008950197F7CF1F921FB63D
:1035C0001F9211248F939F93AF93BF9380911E02FC
:1035D00090911F02A0912002B09121020196A11D9D
:1035E000B11D80931E0290931F02A0932002B093FE
:1035F0002102BF91AF919F918F911F901FBE1F908D
:1036000018950E94EF22F8942FEF87EA91E6215057
:1036100080409040E1F700C0000087E090EBDC01C3
:103620008093310290933202A0933302B09334021C
:1036300088E19CE00FB6F894A895809360000FBED7
:1036400090936000FFCFCF92DF92EF92FF920F93A3
:103650001F93CF93C0E0E82EF12C8C2F0E94D2084C
:1036600010E000E0C82ED12CC601002E02C09595B6
:1036700087950A94E2F780FF11C0602F7C2F80E0CD
:103680000E947F05E816F90649F481E0CF911F9169
:103690000F91FF90EF90DF90CF9008950F5F1F4F35
:1036A0000630110509F7CF5FC430B9F680E0EECFE0
:1036B000CF93C82F8CE20E94231B882321F08C2FEC
:1036C000CF910C94231B80E0CF910895CF93DF938B
:1036D00000D000D0CDB7DEB70E940F1A811102C012
:1036E0000E94EE1995E6998308C00E942F088FE387
:1036F0009CE90197F1F700C00000A981A150A983BE
:10370000A111F3CF89E20E94581B811110C18AE2F6
:103710000E94581B81110E94EE1985E00E94581BDF
:1037200081110E94011B0E941A1A8093E60187E012
:103730000E94581B882371F08BE10E94581B88233C
:1037400009F4D1C09091E601892F8D7F91FF8260AD
:103750008093E6018091E6010E941E1A0E942C1AB5
:1037600090E0909323028093220280EE0E94581BE7
:10377000882341F090912202892F8E7F90FF8160F3
:103780008093220289E30E94581B882341F0909184
:103790002202892F8D7F91FF82608093220282EE28
:1037A0000E94581B882341F090912202892F8B7F21
:1037B00092FF84608093220286EE0E94581B882329
:1037C00041F090912202892F877F93FF8860809338
:1037D000220283EE0E94581B882341F0909122021E
:1037E000892F8F7E94FF80618093220285E30E945F
:1037F000581B882341F090912202892F8F7D95FFDD
:1038000080628093220281E30E94581B882341F04A
:1038100090912202892F8F7B96FF806480932202F1
:1038200081E10E94581B882341F090912202892F48
:1038300097FB87F9805880932202809122020E9490
:10384000301A87E20E94581B89838EE10E94581B20
:10385000882319F0B981B260B9838FE10E94581BA7
:10386000882319F029812460298380E20E94581B53
:10387000882319F039813860398381E20E94581B0E
:10388000882319F049814061498382E20E94581BD4
:10389000882319F059815062598383E20E94581B92
:1038A000882319F089818064898384E20E94581BEF
:1038B0008823B1F199819068998389810E94271AA0
:1038C0003981232F30E050E040E029833A834B8355
:1038D0005C83CA01B9010F900F900F900F90DF9198
:1038E000CF910C9465168EE00E94581B882339F006
:1038F0009091E601892F8B7F92FF846029CF80E130
:103900000E94581B9091E601882329F0892F877F18
:1039100093FF88601DCF892F8E7F90FF816018CF25
:10392000A981A111CACF0E94231A282FCBCF0F90B3
:103930000F900F900F90DF91CF9108958091EA0141
:1039400080FF12C06091060185E0689FB0011124DC
:10395000759567957595679560387105A8F561153A
:103960007105A1F1862F089581FF09C060910601BC
:1039700085E0689FB001112475956795EDCF609142
:10398000060182FD0AC08091EB018823D1F090915D
:10399000050160910601891728F085E0689FB00154
:1039A0001124DACF869FB001112485E0869F900113
:1039B000879F300D1124692F70E0C9010E942C27C8
:1039C000CBCF65E070E0CECF8FE7089581E008951A
:1039D0008091EA0180FF0CC06091040170E0759550
:1039E0006795759567956115710549F1862F08955D
:1039F00081FF06C06091040170E075956795F3CF73
:103A00006091040182FD0BC09091EB019923A1F01C
:103A10006091030180910401961738F0682F70E0DF
:103A20006038710500F38FE70895899FC001112464
:103A300070E00E942C27F4CF61E070E0D7CF81E0E6
:103A40000895803F31F40E949E1C81958093EE0181
:103A50000895813F19F40E949E1CF8CF823F31F4F3
:103A60000E949E1C81958093ED010895833F19F477
:103A70000E949E1CF8CF893F29F40E94E81C809385
:103A8000EF0108958A3F21F40E94E81C8195F7CF49
:103A90008B3F31F40E94E81C81958093F0010895DA
:103AA0008C3F19F40E94E81CF8CF843F31F48091D8
:103AB000EC0181608093EC010895853F21F48091B1
:103AC000EC018260F7CF863F21F48091EC018460A5
:103AD000F1CF873F21F48091EC018860EBCF883FE4
:103AE00021F48091EC018061E5CF8D3F31F480912C
:103AF000EA0181608093EA0108958E3F21F480916C
:103B0000EA018260F7CF8F3FB9F78091EA018460C4
:103B1000F1CF9091ED01803F41F48091EE0187FD5E
:103B20001092EE01992371F00895813F29F480915C
:103B3000EE011816ACF3F6CF823F81F497FFF2CF77
:103B40001092ED018091EE019091EF01892B9091FF
:103B5000F001892B49F71092EB010895833F19F486
:103B6000191674F3DFCF893F39F48091EF011816ED
:103B7000CCF61092EF01D6CF8A3F29F48091EF0165
:103B800087FFD0CFF6CF8B3F39F48091F00187FFCC
:103B9000C9CF1092F001C6CF8C3F29F48091F0017B
:103BA0001816BCF3BFCF843F31F48091EC018E7FB7
:103BB0008093EC01B7CF853F21F48091EC018D7F9C
:103BC000F7CF863F21F48091EC018B7FF1CF873FC7
:103BD00021F48091EC01877FEBCF883F21F4809125
:103BE000EC018F7EE5CF8D3F31F48091EA018E7F2D
:103BF0008093EA0197CF8E3F21F48091EA018D7F77
:103C0000F7CF8F3F09F08ECF8091EA018B7FF0CF05
:103C10008CEE91E00E94F30D0E94AD1A9093E901A1
:103C20008093E80108951F93CF93DF9300D000D0D5
:103C300000D0CDB7DEB78091E8019091E9010E94F4
:103C4000B91AAC018091EB012091070130E081119C
:103C500006C0209108019AE0299F90011124421783
:103C6000530788F02091ED01A091EE01A9831091F6
:103C7000EF01B091F001BE8321110FC09A2F912B5B
:103C80009B2B09F0B2C026960FB6F894DEBF0FBE8C
:103C9000CDBFDF91CF911F9108958F3F19F08F5FB6
:103CA0008093EB01121624F40E949E1C8093ED0178
:103CB0008091ED0187FF05C00E949E1C8195809335
:103CC000ED012981121624F40E949E1C8093EE01BE
:103CD0008091EE0187FF05C00E949E1C8195809314
:103CE000EE018091ED01882309F455C03091EE0179
:103CF0003D83332309F44FC0282F880F330B440B27
:103D0000550B29833A834B835C83CA01B9010E9416
:103D10001F2623E333E343E35FE369837A838B83E3
:103D20009C8369817A818B819C810E94832669832F
:103D30007A838B839C8369817A818B819C810E94A9
:103D4000E7256093ED018D81082E000C990BAA0BDD
:103D5000BB0B89839A83AB83BC83BC01CD010E94DA
:103D60001F2623E333E343E35FE369837A838B8393
:103D70009C8369817A818B819C810E9483266983DF
:103D80007A838B839C8369817A818B819C810E9459
:103D9000E7256093EE01111624F40E94E81C80933D
:103DA000EF018091EF0187FF05C00E94E81C81951B
:103DB0008093EF019E81191624F40E94E81C8093E1
:103DC000F0018091F00187FF05C00E94E81C8195F9
:103DD0008093F00126960FB6F894DEBF0FBECDBFDC
:103DE000DF91CF911F910C94081E8F3F09F057CFA0
:103DF00068CF85E0ECEEF1E0DF011D928A95E9F7EE
:103E00001092EB011092EA01089580911102089539
:103E1000CF93DF9300D00F92CDB7DEB72091280269
:103E2000243019F523E029838A839B832093E900BA
:103E30008FEF9091E800815095FD06C095ED9A9521
:103E4000F1F700008111F5CF8091E80085FF0DC0EA
:103E500050E040E063E070E0CE0101960E946721EF
:103E60008091E8008E778093E8000F900F900F907C
:103E7000DF91CF910895CF93DF9300D00F92CDB70C
:103E8000DEB79C0180912802843031F582E089837D
:103E9000205831093B832A8383E08093E9008FEF28
:103EA0009091E800815095FD06C095ED9A95F1F747
:103EB00000008111F5CF8091E80085FF0DC050E032
:103EC00040E063E070E0CE0101960E94672180919E
:103ED000E8008E778093E8000F900F900F90DF91AD
:103EE000CF910895209128022430F1F422E020930C
:103EF000E9002FEF3091E800215035FD06C035ED87
:103F00003A95F1F700002111F5CF2091E80025FF47
:103F10000BC050E040E065E070E00E9467218091B6
:103F2000E8008E778093E8000895CF93DF93D82F31
:103F3000C92F809128028430F1F4909113019923C4
:103F4000E9F09091220297FF19C08093E9008FEF6A
:103F50009091E800815095FD06C095E19A95F1F7A2
:103F600000008111F5CF8091E80050E040E060E270
:103F700070E085FD1AC0DF91CF91089581E08093B4
:103F8000E9008FEF9091E800815095FD06C095ED16
:103F90009A95F1F700008111F5CF8091E80085FF37
:103FA000EACF50E040E068E070E08D2F9C2F0E9447
:103FB00067218091E8008E778093E80080E2ED2F02
:103FC000FC2FA1EFB1E001900D928A95E1F7D3CFDC
:103FD00080912702811109C00E94EF220E944C2388
:103FE0008091E20084608093E2000895109227029D
:103FF0000895089508950C94771A42E061EC81E0E9
:104000000E946B2242E061EC82E00E946B2242E05F
:1040100061EC83E00E946B2242E261EC84E00C944C
:104020006B2280912A02893089F148F4823009F4A8
:1040300094C0833009F44FC0813041F008958A3034
:1040400009F47BC08B3009F461C008958091290286
:10405000813A09F03FC08091E800877F8093E800B3
:1040600080912D0290912E02892B61F460E281EF04
:1040700091E070E00E94B6218091E8008B778093F8
:10408000E800089560E090E080E0F3CF809129029D
:10409000813201F580912D0290912E02009711F04E
:1040A0000397C1F48091E800877F8093E8008091B6
:1040B000E80082FF0BC08091F10080931102809193
:1040C000E8008B778093E8000C949F22809128026F
:1040D0008111EDCF089580912902813AD9F780911D
:1040E0002D0290912E02892BA9F78091E800877FFD
:1040F0008093E8008091E80080FFFCCF809113015D
:104100008093F1008091E8008E77DCCF80912902C6
:10411000813201F780912D0290912E02892BD1F6E8
:104120008091E800877F8093E8000E949F22809121
:104130002B02809313010C94C612809129028132C4
:1041400049F68091E800877F8093E8000E949F22D3
:1041500080912C0280931202089580912902813A65
:1041600009F0B8CF8091E800877F8093E8008091C4
:10417000E80080FFFCCF80911202C2CF84B7877F16
:1041800084BF0FB6F894A8958091600088618093F1
:104190006000109260000FBE80E880936100109272
:1041A00061000E942B0E0E94EF220E944C238091FE
:1041B000E20084608093E20078940E94CC250E9403
:1041C0002D0E89E091E00E94D70D80912802853064
:1041D00029F00E94350E0E94A40DF7CF0E94351AD7
:1041E00080912602882389F30E94631A882369F349
:1041F0000E945121EACF9C01DA01892F992783304F
:104200009105C1F068F48130910509F445C0029729
:1042100061F48DE690E029EE35E02D933C9308950E
:1042200081329105E1F0829739F190E080E030E051
:1042300020E0F3CFC9019927213059F08230910550
:1042400059F0E5EEF5E0892B81F7849190E09F012C
:10425000E4CFEDECF5E0F9CFE9EBF5E0F6CF643033
:1042600020F7E62FF0E0EE0FFF1FE65DFE4F208106
:10427000318189E090E0D1CF6430B8F670E0FB0185
:10428000EE0FFF1FEE5DFE4F20813181625E7E4F9B
:10429000FB01808190E0C1CF82E190E026E536E02D
:1042A000BCCF80E189BD82E189BD09B400FEFDCFAC
:1042B0008091D8008F7D8093D8008091E00082604B
:1042C0008093E0008091E00081FDFCCF0895AF92E3
:1042D000BF92CF92DF92FF920F931F93CF93DF9302
:1042E0006C01EB018A010E94BE22F82E811123C0CD
:1042F0000115110539F0F80180819181C81BD90B96
:10430000C80ED91EB12CA12C2097A9F08091E800ED
:1043100085FD22C08091E8008E778093E80001152A
:104320001105A1F0F80180819181A80EB91EB1821A
:10433000A08285E0F82E8F2DDF91CF911F910F91F4
:10434000FF90DF90CF90BF90AF9008950E94BE2263
:104350008823D1F2F82EEFCFF60181916F0180937F
:10436000F1002197FFEFAF1ABF0ACECFFC01CB01BE
:1043700020912F02309130022617370790F00097D6
:1043800029F42091E8002E772093E80040E0009780
:1043900051F4411108C08091E80082FF31C080E0F3
:1043A0000895C901F3CF209128022223A9F12530D5
:1043B000A9F12091E80023FD2DC02091E80022FD05
:1043C000EACF2091E80020FFE2CF3091F300209166
:1043D000F200009719F02830310558F041E02830FC
:1043E000310509F040E02091E8002E772093E800A5
:1043F000CECF41914093F10001972F5F3F4FE9CF1E
:1044000080912802882341F0853041F08091E800B6
:1044100083FFC1CF81E0089582E0089583E008958D
:10442000FC01CB0120912F02309130022617370773
:1044300090F0009729F42091E8002E772093E8006F
:1044400040E0009751F4411108C08091E80082FFDC
:1044500032C080E00895C901F3CF209128022223C1
:10446000B1F12530B1F12091E80023FD2EC020915B
:10447000E80022FDEACF2091E80020FFE2CF309152
:10448000F3002091F200009719F02830310558F020
:1044900041E02830310509F040E02091E8002E7716
:1044A0002093E800CECF44914093F10031960197DC
:1044B0002F5F3F4FE8CF80912802882341F085305D
:1044C00041F08091E80083FFC0CF81E0089582E051
:1044D000089583E00895982F973028F08F70809387
:1044E000E90081E008959093E900242F762F50E0B1
:1044F000981731F07091EC002091ED005091F00090
:1045000021FD02C09F5FE8CF3091EB003E7F3093EA
:10451000EB003091ED003D7F3093ED003091EB00EA
:1045200031603093EB007093EC002093ED005093DA
:10453000F0002091EE0027FDE5CF80E00895809106
:10454000290287FF13C08091E80082FF06C0809196
:10455000E8008B778093E80004C0809128028111E5
:10456000F2CF0895809128028823D9F38091E80042
:1045700080FFF8CF8091E8008E77ECCF2091E400A7
:104580003091E50095E6A9012091EC00822F817021
:1045900020FF06C08091E80080FF06C080E00895FB
:1045A0002091E80022FD1AC080912802882389F01A
:1045B000853089F08091EB0085FD0FC02091E400EB
:1045C0003091E50042175307F9F29150E1F684E08B
:1045D000089582E0089583E0089581E008950E949F
:1045E0005D230E946523E0EEF0E08081816080839E
:1045F000E8EDF0E080818F77808319BCA7EDB0E013
:104600008C918E7F8C9380818F7E80831092270285
:1046100008950F931F93CF93DF930E945D230E9411
:104620006523C8EDD0E088818F7788838881806892
:10463000888388818F7D888319BC1092280210920C
:104640002402109226021092250200EE10E0F801DA
:1046500080818B7F808388818160888342E060E0F5
:1046600080E00E946B22E1EEF0E080818E7F80830B
:10467000E2EEF0E0808181608083808188608083C9
:10468000F80180818E7F8083888180618883DF91BB
:10469000CF911F910F910895E8EDF0E080818F7E1A
:1046A0008083E7EDF0E080818160808384E082BFD9
:1046B00081E0809327020C940923E8EDF0E08081EB
:1046C0008E7F80831092E20008951092DA0010929B
:1046D000E10008951F920F920FB60F9211242F93AD
:1046E0003F934F935F936F937F938F939F93AF937A
:1046F000BF93EF93FF938091E10082FF0BC0809105
:10470000E20082FF07C08091E1008B7F8093E1008F
:104710000E94CB258091DA0080FF19C08091D800DB
:1047200080FF15C08091DA008E7F8093DA0080913F
:10473000D90080FF94C080E189BD82E189BD09B4C0
:1047400000FEFDCF81E0809328020E94E81F809147
:10475000E10080FF19C08091E20080FF15C08091C8
:10476000E2008E7F8093E2008091E200806180937E
:10477000E2008091D80080628093D80019BC85E067
:10478000809328020E94FA1F8091E10084FF29C0D3
:104790008091E20084FF25C080E189BD82E189BD6E
:1047A00009B400FEFDCF8091D8008F7D8093D800A2
:1047B0008091E1008F7E8093E1008091E2008F7E06
:1047C0008093E2008091E20081608093E20080911A
:1047D0002402882309F449C084E0809328020E94BF
:1047E000FB1F8091E10083FF29C08091E20083FFDD
:1047F00025C08091E100877F8093E10082E0809373
:104800002802109224028091E1008E7F8093E100C3
:104810008091E2008E7F8093E2008091E2008061CF
:104820008093E20042E060E080E00E946B22809191
:10483000F00088608093F0000E94F91FFF91EF91D3
:10484000BF91AF919F918F917F916F915F914F91A8
:104850003F912F910F900FBE0F901F90189519BC8C
:10486000109228020E94F61F72CF8091E30087FD0C
:1048700002C081E0B2CF83E0B0CF1F920F920FB69B
:104880000F9211242F933F934F935F936F937F93D6
:104890008F939F93AF93BF93CF93DF93EF93FF9348
:1048A000D091E900DF708091EC00C82FC17080FDCD
:1048B000C0E81092E9008091F000877F8093F000BB
:1048C00078940E9481241092E9008091F000886021
:1048D0008093F000CD2BCF70C093E900FF91EF9152
:1048E000DF91CF91BF91AF919F918F917F916F9108
:1048F0005F914F913F912F910F900FBE0F901F909E
:1049000018951F93CF93DF93CDB7DEB7AA970FB655
:10491000F894DEBF0FBECDBF89E292E0FC010196A4
:104920002091F100208322E081339207B9F70E94A1
:1049300011208091E80083FF16C180912902909197
:104940002A029A3008F00FC1E92FF0E0E554F84D43
:104950000C944027803881F0823809F004C180919E
:104960002D028F708093E9008091EB0085FB8827F2
:1049700080F91092E90006C08091250290912602EC
:10498000911182609091E800977F9093E800809366
:10499000F1001092F1008091E8008E77E0C088234A
:1049A00009F4CEC0823009F0DEC080912B02811163
:1049B000D1C080912D028F7009F4D5C08093E90099
:1049C0002091EB0020FFC6C0933031F48091EB00C2
:1049D00080628093EB00BEC09091EB009061909359
:1049E000EB0021E030E001C0220F8A95EAF7209326
:1049F000EA001092EA008091EB008860EACF811112
:104A0000B2C010912B021F778091E3008078812B38
:104A10008093E3008091E800877F8093E8000E9404
:104A20009F228091E80080FFFCCF8091E3008068A6
:104A30008093E30082E0111183E08093280293C009
:104A40008058823008F08FC080912B0290912C0208
:104A50008C3D23E09207A1F583E08A838AE2898373
:104A60004FB7F894DE01139620E03EE051E2E32FC9
:104A7000F0E050935700E49120FF03C0E295EF70FF
:104A80003F5FEF708E2F90E0EA30C0F0C7968D93B5
:104A90009D932F5F243159F74FBF8091E800877FA6
:104AA0008093E8006AE270E0CE0101960E94B62190
:104AB0008091E8008B778093E80055C0C096E7CFDF
:104AC000AE014F5F5F4F60912D020E94FB20BC0141
:104AD000892B09F448C08091E800877F8093E80023
:104AE00089819A810E941022E3CF8038E1F580917C
:104AF000E800877F8093E800809124028093F10092
:104B00004ACF811130C090912B02923060F5809194
:104B1000E800877F8093E800909324020E949F2200
:104B200080912402882311F084E005C08091E30085
:104B300087FDFACF81E0809328020E94FD1F13C0F9
:104B400080912B02813079F481E0933009F080E08C
:104B5000809326021092E9008091E800877F80937D
:104B6000E8000E949F228091E80083FF0AC08091A4
:104B7000E800877F8093E8008091EB00806280935B
:104B8000EB00AA960FB6F894DEBF0FBECDBFDF9143
:104B9000CF911F9108950895CF9380912802882383
:104BA000A1F0C091E900CF709091EC00892F817045
:104BB00090FD80E8C82B1092E9008091E80083FD09
:104BC0000E948124CF70C093E900CF9108950E9484
:104BD000EE256894B1110C947D2608950E946226FA
:104BE00088F09F5798F0B92F9927B751B0F0E1F0AE
:104BF000660F771F881F991F1AF0BA95C9F714C05E
:104C0000B13091F00E947C26B1E008950C947C268E
:104C1000672F782F8827B85F39F0B93FCCF3869596
:104C200077956795B395D9F73EF4909580957095F3
:104C300061957F4F8F4F9F4F0895E89409C097FB70
:104C40003EF490958095709561957F4F8F4F9F4F63
:104C50009923A9F0F92F96E9BB279395F6958795A7
:104C600077956795B795F111F8CFFAF4BB0F11F46A
:104C700060FF1BC06F5F7F4F8F4F9F4F16C0882311
:104C800011F096E911C0772321F09EE8872F762F47
:104C900005C0662371F096E8862F70E060E02AF088
:104CA0009A95660F771F881FDAF7880F9695879574
:104CB00097F9089557FD9058440F551F59F05F3FDD
:104CC00071F04795880F97FB991F61F09F3F79F02E
:104CD00087950895121613061406551FF2CF4695B0
:104CE000F1DF08C0161617061806991FF1CF869532
:104CF0007105610508940895E894BB276627772716
:104D0000CB0197F908950E9496260C9407270E94DC
:104D1000F92638F00E94002720F0952311F00C941A
:104D2000F0260C94F62611240C947D260E945A2617
:104D300070F3959FC1F3950F50E0551F629FF001EE
:104D4000729FBB27F00DB11D639FAA27F00DB11D07
:104D5000AA1F649F6627B00DA11D661F829F222790
:104D6000B00DA11D621F739FB00DA11D621F839F17
:104D7000A00D611D221F749F3327A00D611D231FED
:104D8000849F600D211D822F762F6A2F11249F573B
:104D900050409AF0F1F088234AF0EE0FFF1FBB1F3E
:104DA000661F771F881F91505040A9F79E3F5105FD
:104DB00080F00C94F0260C947D265F3FE4F3983E3F
:104DC000D4F3869577956795B795F795E7959F5FA7
:104DD000C1F7FE2B880F911D9695879597F9089539
:104DE00097F99F6780E870E060E008959FEF80EC9E
:104DF000089500240A941616170618060906089541
:104E000000240A9412161306140605060895092EA6
:104E10000394000C11F4882352F0BB0F40F4BF2B15
:104E200011F460FF04C06F5F7F4F8F4F9F4F089555
:104E3000AA1BBB1B51E107C0AA1FBB1FA617B707C0
:104E400010F0A61BB70B881F991F5A95A9F78095DC
:104E50009095BC01CD01089597FB072E16F40094A0
:104E600007D077FD09D00E94182707FC05D03EF433
:104E7000909581959F4F0895709561957F4F089506
:104E8000EE0FFF1F0590F491E02D0994F999FECFE4
:104E900092BD81BDF89A992780B50895A6E1B0E04A
:104EA00044E050E00C948027A8E1B0E042E050E0FC
:104EB0000C948027262FF999FECF92BD81BDF89AD8
:104EC000019700B4021639F01FBA20BD0FB6F8944E
:104ED000FA9AF99A0FBE08950396272F0E945B272E
:104EE0000E945A27252F0E945B27242F0C945B27B2
:104EF0000196272F0E945B270C945A27DC01CB01D7
:104F0000FC01F999FECF06C0F2BDE1BDF89A3196D9
:104F100000B40D9241505040B8F70895F894FFCF77
:104F2000BA04BF04C404C904CE04D304D8043005B1
:104F30005505DD04E904ED04F104F504F904FD046C
:104F40000105050509050D051105150519051D05C1
:104F500021052505290571107110C910C9100D1101
:104F60002911A110A1103411A110FC11FC1167121C
:104F7000A110A1107012AA24CF24B325CF24B325E9
:0A4F8000FF242025B32575258125A7
:104F8A00FFC3012808140A321E051F951F721F3B12
:104F9A001F081F01973435663667F0F1F4F5404D66
:104FAA0036392407D706A1066806FB0514062D061E
:024FBA004606A9
:00000001FF
